:020000000C945E
:10000200EA000C94A9010C9400000C9400000C94DA
:1000120000000C9400000C9400000C9400000C945E
:1000220000000C9400000C9400000C9400000C944E
:1000320000000C9400000C9400000C9400000C943E
:1000420000000C9400000C9400000C9400000C942E
:100052000000000000000000000060024163024254
:100062006802436D02447102457302467802477C7E
:10007200024881024984024A89024B8D024C920253
:100082004D95024E98024F9C0250A10251A6025277
:10009200AA0253AE0254B00255B40256B90257BD79
:1000A2000258C20259C7025A2E2D002D2E2E2E00A2
:1000B2002D2E2D2E002D2E2E002E2E2D2E002D2DEE
:1000C2002E002E2E2E2E002E2D2D2D002D2E2D000B
:1000D2002E2D2E2E002E2D2D2E002D2D2E2D002ECE
:1000E2002E2D002E2E2E2D002E2D2D002D2E2E2DBE
:1000F200002D2E2D2D002D2D2E2E00576F726420D7
:1001020073746F7265640053797374656D207265E0
:100112007365740080C0080006005400030060028A
:10012200AA0005006302AD0005006802B2000400E7
:100132006D02B70002007102B00005007302BB003D
:1001420004007802C00005007C02C40003008102A2
:10015200AF0005008402C90004008902CE00050038
:100162008D02D20003009202CB0003009502B4007C
:1001720004009802CA0005009C02D7000500A102F3
:10018200DC000400A602B3000400AA02AE000200D2
:10019200AE02AB000400B002E1000500B402E500CB
:1001A2000400B902EA000500BD02EE000500C20229
:1001B200F3000500C702F8004E00E5025C000C00E7
:1001C200CC02FD000D00D80209010200A5031601B0
:1001D2000000F894EE27ECBBF1E0FBBFEBBFE5BFFC
:1001E2008DE0A2E0BB27ED938A95E9F780E098E0E5
:1001F200A0E6ED930197E9F7E8E1F1E085919591A9
:10020200009761F0A591B59105901590BF01F0019D
:1002120005900D920197E1F7FB01F0CFEFE5EDBFFD
:10022200E8E0EEBFC0E6D2E00C942F01AA93E19978
:10023200FECFE981F0E0FFBBEEBBE881EDBBE29AC5
:10024200E19A0C94AF02AA93E199FECFE881F0E023
:10025200FFBBEEBBE09AEDB30C941E03A0E20E943A
:10026200F0028A98929A8B98939A8C98949A8D9885
:10027200959A67D07894062C072819F093D06624B3
:100282007724E0EDF7E0AE16BF0624F000240C144C
:100292000D040CF009C00E9434030E943B03CC24DD
:1002A200DD24AA24BB2411C0E8EEF3E0AE16BF069B
:1002B20024F000240C140D040CF007C00E94340337
:1002C20089D0CC24DD240E944803E0EDF7E0AE168D
:1002D200BF066CF0A091A103B091A2030E94830318
:1002E20034F4E091A303F091A403309709F00AC01B
:1002F2000E943B03E1E0F0E0E093A303F093A40348
:10030200AA24BB24849908C09DD02AD1ACECB2E0C7
:100312000E9450030E944803839905C0B3D0AA24C7
:10032200BB24839BFECF859903C0C7D0859BFECF9C
:10033200A1E0B0E00E946D03F50131965F019BCF11
:10034200FFCFE5B7E260E5BFEBB7E064EBBF08952E
:100352000A921A92FA926A937A938A939A93AA9336
:10036200BA93EA93FA93EFB7EA9382990DC082990E
:1003720008C0F40131964F01A1E0B0E00E946D0384
:10038200F6CFE1E0F0E03F01E991EFBFF991E991A9
:10039200B991A9919991899179916991F99019905D
:1003A20009901895E0E9F1E0E815F90524F40E94B6
:1003B2005803ADE203C00E945803AEE2A0830E943C
:1003C2003403CED0A3E3B3E0F9D088249924AA243D
:1003D200BB24089544245524EAE1F0E04E165F065A
:1003E20084F5F201A3E0B0E00E947703EB51FD4FE8
:1003F200DF010E947F03FA93EA93A3E3B3E00E9432
:100402002003E030D1F4A1EAB3E0ED91FD91319601
:10041200FE93EE933197E35CFC4FBF01F201A3E040
:10042200B0E00E947703E951FD4FE081DB01EC93DC
:1004320097D0ADE3B3E0C2D004C0F20131962F01F0
:10044200CBCF089544245524E091A103F091A20357
:100452004E165F0664F4E42DEA93ADE3B3E0A40D17
:10046200B51DAC91E3DEF20131962F01EDCFE091A3
:10047200A103EA93A0E0DADEE0E0E093A103E093D7
:10048200A20308950E94870300E010E069D0A02F24
:10049200DADE3E2F303069F0303211F4A0E201C0D2
:1004A200A32F6CD00F5F1F4FA2E3B0E00E946D0339
:1004B200EECF0E948C0324960895E0E0E093A1031E
:1004C200E093A203CC24DD24E093A303E093A403EE
:1004D20047D0A8EDB2E00E9450030895AA93E881A4
:1004E200E07111F0AB9A01C0AB98E881E07211F0B3
:1004F200AA9A01C0AA98E881E07411F0A99A01C0F1
:10050200A998E881E07811F0A89A01C0A8988DE036
:100512008A95F1F7AD9A8DE08A95F1F7AD988DE065
:100522008A95F1F78AC0AA93A881D8DFE881E2957B
:10053200E883A881D3DF85E88A95F1F77EC0AA9384
:10054200E881F0E0EB55FC4FE081A981AE0FEBDFD3
:10055200E981E093A903E881E093AA032296089532
:10056200A2E00E945F03ACE0DEDFA1E00E945F0335
:10057200E0E0E093AA03E093A9030895AA93A88177
:10058200AA3031F0E091AB03A091A903AE1760F05D
:10059200E0E0EA93A091AA03AF5FA093AA03CFDFA2
:1005A200A881AA3009F449C0E091A903EF5FE09362
:1005B200A903AF9AA881B7DFAF983FC0BA93AA93B5
:1005C2001A93A981BA81ED91A983BA831E2FE030D3
:1005D20019F0A12FD3DFF5CF188123960895AA939E
:1005E200A39AA29AA19AA09AA59AA79AA69AAD9816
:1005F200AF98AE98E881E093AB03E058E093A7038D
:10060200E881E054E093A803A4E1B0E00E946D0306
:100612000E9465030E9465030E946503A0E25EDFFB
:1006220088EC90E00197F1F7A8E27DDFA4E07BDFA0
:10063200A5E879DFA6E077DF93DF21960895BA93E4
:10064200AA93E991F991A991B9916D917191671765
:1006520021F46623D1F7EE270895671BE1F3E1E069
:1006620008F4E2500895A3E3B3E0AC0DBD1DE0E051
:10067200EC930895A1EAB3E0ED91FD913196FE93DA
:10068200EE933197E35CFC4FA0E2A0830895AA2485
:10069200BB24E0E0E093A303E093A40308950E9447
:1006A200DF02A8EEB3E00E946D030C94B102F601E2
:1006B20031966F013197ED5CFC4F08950E949402D0
:1006C200A3E0B0E00C946D03A0E30E946F0288ECFB
:1006D20090E00197F1F70895109639F0A89580ED12
:1006E20097E00197F1F71197C9F70895FA9FF02D56
:1006F200EB9FF00DEA9FE02DF10D0895ED91FC9135
:100702001197089500240A160B0608953A932A9326
:100712001A930A9308953B812A81198108810895C9
:00000001FF
