:040000000C945F00FD
:100004000C9400000C9400000C9400000C9400006C
:100014000C9400000C9400000C948C000C940000D0
:100024000C9400000C94AA000C9400000C940000A2
:100034000C9400000C9400000C9400000C9400003C
:100044000C9400000C9400000C9400000C9400002C
:1000540000000000000000000000FFFF412214081F
:1000640014224100C0FFF9FFA4FFB0FF99FF92FFE3
:1000740082FFF8FF80FF90FFFEFDFBF70100373899
:10008400392F3435362A3132332D43303D2B0A0093
:1000940004005400020062025E000700680260006F
:1000A40014006F026800040083027C0001008902CE
:1000B400800010008B0282000000F894EE27ECBB55
:1000C400F1E0FBBFEBBFE5BF8DE0A2E0BB27ED9302
:1000D4008A95E9F780E098E0A0E6ED930197E9F7C7
:1000E400E2E9F0E085919591009761F0A591B591D1
:1000F40005901590BF01F00105900D920197E1F76D
:10010400FB01F0CFEFE5EDBFE8E0EEBFC0E6D2E0E3
:100114000C94B8024FD2082C092819F00A2C0B2889
:1001240009F015C0062C072879F4002404140504EA
:100134003CF4F20131972F01EBE3F0E03F0103C0FF
:1001440088249924B0D003C0F30131973F0132C011
:1001540031D23ED2082C092859F40A2C0B2841F438
:10016400E0916402F0916502309711F4E0E001C07F
:10017400E1E0F0E0DF012CD0E0918902F0918A0205
:10018400EE0FFF1FE0938902F0938A02A7E8B2E022
:1001940024D2A0918702B0918802149759F4E0E028
:1001A400E0938702E0938802E1E0F0E0E0938902C3
:1001B400F0938A02E991EFBFF991E991B991A9917C
:1001C4009991899179916991F9901990099018956B
:1001D400BA93AA9322970E947403AC85BD8503D277
:1001E4008F01AC85BD85EAE0F0E00E944A039F01DF
:1001F400E885F985309721F0AA85BB85F4D102C042
:10020400E0E0F0E0AF01E885F985309739F0AA85A0
:10021400BB85EAE0F0E00E944A0302C0E0E0F0E0BF
:10022400EE83FF83EFEFE5BBE0E0E2BBA091660263
:10023400B0916702E4E0F0E00E944A03309711F4C1
:10024400F80112C0E130A0E0FA0711F4F9010CC082
:10025400E230A0E0FA0711F4FA0106C0E330A0E0AE
:10026400FA0781F4EE81FF81AFE6B2E0EE0FFF1FE3
:10027400AE0FBF1FEC91E5BBE0916602A1E00E94C6
:100284001303E2BBE0916602F09167023196A3E0AA
:10029400B0E00E945803E0936602F09367020E9464
:1002A4007B032E9608950E94760300E010E001304F
:1002B400E0E01E0704F5C79AACE2B1E00E94050332
:1002C400C79820E030E02730E0E03E078CF4E8B344
:1002D400E0780E2EA8E6B2E0A20FB31FEC91E0295D
:1002E400E8BBA2E3B0E00E9405032F5F3F4FEBCFD2
:1002F4000F5F1F4FDCCF0E947D03249608950E9458
:10030400740310E04FEF5FEF20E030E02430E0E0D2
:100314003E0704F5A3E8B2E0A20FB31FEC91EBBBD8
:1003240085E88A95F1F7CC9903C040E050E012C00B
:10033400CD9903C041E050E00DC0CE9903C042E026
:1003440050E008C0CF9903C043E050E003C02F5FE2
:100354003F4FDCCFEFEFFFEFE417F50709F4FBC0E5
:10036400F9010E941B03E40FF51FE0936202F0936E
:100374006302E557FD4F1081F2D0103310F01A33A9
:1003840008F056C00C2C0D2889F5E0916002F0911C
:100394006102309741F4E12FF0E0F0972F01A0E6DD
:1003A400B2E01BD122C0A0916002B091610211970A
:1003B400E1F4F201AAE0B0E00E942D03DF01E12F95
:1003C400F0E0F097EA0FFB1F2F01ECE3F0E04E168C
:1003D4005F061CF0EBE3F0E02F01E1E0F0E06F01D9
:1003E400E0E0E0936002E093610221C0E0916002EA
:1003F400F0916102309741F4E12FF0E0F097AAE028
:10040400B0E00E942D030FC0F3D0119781F4E12FC7
:10041400F0E0F0976E0E7F1EECE3F0E06E167F06C0
:100424001CF0EBE3F0E03F01A0E6B2E0D6D07EC0E2
:10043400133459F4E0916402F0916502309721F08D
:10044400E1E0F0E04F01D9D079C01F3249F4082C23
:10045400092829F0F5010E942003AE2EBB246EC0AA
:100464001D33C1F4082C092849F40024041405049C
:1004740024F00024061407040CF401C00AC0E1E0CF
:10048400F0E0E0936402F0936502A2D0A1E0B0E052
:100494009FDE54C01A32A9F44424552466247724D8
:1004A400CC24DD24E0E0E0936002E0936102882440
:1004B4009924AA24BB24A1D08BD0A0E0B0E088DE8C
:1004C4003DC01D32D9F5E1E0F0E0EC15FD0521F465
:1004D4008FD00E9470030CF004C0D30184D03F017C
:1004E4001EC0E1E0F0E0EC15FD0519F481D0109791
:1004F40009F009C0CC24DD24E2E0F0E0E0936002DE
:10050400F093610213C000240C140D0421F470D084
:100514000E9470030CF00AC0D20165D02F01A0E63E
:10052400B2E0ED91FD913197FE93EE935A924A9287
:100534007A926A92A1E0B0E04BDE5FD0CC9B06C019
:10054400CD9B04C0CE9B02C0CF9905C0AAE0B0E009
:100554000E940503F3CF0E947B0326960895C79A51
:10056400A4E1B0E00E940503C7980895EFEFE4BB4F
:10057400E5BBE1BBE0E0E2BBEFEFE7BBE0E0E8BBFB
:10058400EFE0EABBE0EFEBBBEEB5ED60EEBDE0E71C
:10059400FBE0FBBDEABDE9B7E061E9BFE3B7EB60AF
:1005A400E3BFE0E7ECBFE9B7E260E9BF7894A7DE18
:1005B400FECFFFCF0A921A92FA926A937A938A93A1
:1005C4009A93AA93BA93EA93FA93EFB7EA930895A6
:1005D4005A924A927A926A920895ED91FD913196D7
:1005E400FE93EE930895EAE0F0E00E944503089537
:1005F400A0916002B09161020895E0E0E09364028A
:10060400E09365020895109639F0A89580ED97E07F
:100614000197F1F71197C9F70895F195E195F04025
:100624000895EE230E2EEA2F19F0EE0F0A94E9F73F
:100634000895EE0FFF1FEE0FFF1F0895EF2BE1E06B
:1006440009F0E0E00895FA9FF02DEB9FF00DEA9F8A
:10065400E02DF10D089534D0F6DF0EF4DEDF0895B9
:100664000024112490E1AA0FBB1F001C111C0E1AB8
:100674001F0A18F40E0E1F1E01C0A1609A9599F767
:10068400FD01D00108951CD0EBDF0EF4C6DF089500
:10069400E894B7FF04C0A095B09511966894F7FD4F
:1006A400BCDFDEDFFD010EF4B8DF0895E894F7FF48
:1006B40002C0B3DF6894EA23FB230EF4AEDF08958F
:1006C400E894F7FF02C0A9DF6894B7FF06C0A095BD
:1006D400B095119600F8039400FA089500240A16C0
:1006E4000B0608955A934A933A932A931A930A93BA
:1006F40008955D814C813B812A8119810881089587
:00000001FF
