:0A0000000C943E000C9400000C94D8
:10000A0000000C9400000C9400000C9400000C9466
:10001A0000000C9400000C9400000C9400000C9456
:10002A0000000C9400000C9400000C9400000C9446
:10003A0000000C9400000C9400000C9400000C9436
:10004A0000000C9400000C9400001027E8036400E0
:10005A000A000100001000011000010077642074FA
:10006A00696D65722025640080C00200600272001A
:10007A000000F894EE27ECBBF1E0FBBFEBBFE5BF55
:10008A008DE0A2E0BB27ED938A95E9F780E098E03E
:10009A00A0E6ED930197E9F7E4E7F0E08591959101
:1000AA00009761F0A591B59105901590BF01F001F7
:1000BA0005900D920197E1F7FB01F0CFEFE5EDBF57
:1000CA00E8E0EEBFC0E6D2E00C94B400BA93AA937B
:1000DA00E199FECFEA81FB81FFBBEEBBE881EDBB74
:1000EA00E29AE19A24960895BA93AA93E199FECFE7
:1000FA00E881F981FFBBEEBBE09AEDB3F0E080C086
:10010A00EEE0E1BD0895A8950895B99AA0E1ACD0B2
:10011A00A8ECB0E00E94630375D00895BA93AA933D
:10012A006097FE01FA93EA93E6E6F0E0FA93EA931F
:10013A00EC89FD890E9475030E94820384E00E9473
:10014A00DC022896E0E0EA93A0E04FD0DE017BD003
:10015A0062960895A8EBBBE00E9463030895A0E0AD
:10016A00B0E0C2DF8F010F5F1F4FE0E0F0E0FA93CB
:10017A00EA93D801ABDFC9DFC3DFD801CFDFC19A69
:10018A00E9DFC1DFFDCFFFCFAA93E881E07111F06B
:10019A00DB9A01C0DB98E881E07211F0DA9A01C0BB
:1001AA00DA98E881E07411F0D99A01C0D998E88107
:1001BA00E07811F0D89A01C0D8988DE08A95F1F7C5
:1001CA00DD9A8DE08A95F1F7DD988DE08A95F1F751
:1001DA0078C0AA93A881D8DFE881E295E883A8814C
:1001EA00D3DF85E88A95F1F76CC0AA93E881F0E03D
:1001FA00E05AFD4FE081A981AE0FEBDF59804880BC
:10020A0022960895A2E00E942903ACE0E2DFA1E071
:10021A000E942903E0E04E2E5E2E0895AA93A8813B
:10022A00AA3011F0571448F0E0E0EA934394A42D61
:10023A00DCDFA881AA3009F444C05394DF9AA8816C
:10024A00C8DFDF983EC0BA93AA931A93A981BA81EC
:10025A00ED91A983BA831E2FE03019F0A12FDEDFBA
:10026A00F5CF188123960895AA93D39AD29AD19A50
:10027A00D09AD59AD79AD69ADD98DF98DE98788060
:10028A00E881E058E0936202E881E054E093630277
:10029A00A4E1B0E00E9463030E942F030E942F038F
:1002AA000E942F03A0E270DF88EC90E00197F1F73B
:1002BA00A8E28FDFA4E08DDFA5E88BDFA6E089DF67
:1002CA00A1DF21960895BA93AA931A930A93AA8151
:1002DA00BB8112960E947A03309759F1AA81BB8199
:1002EA0014960E947A038F01309761F00230E0E0A1
:1002FA001E0798F0F80131978F01AA81BB811496E5
:10030A00ED93FC93AA81BB811296ED91FD913196F2
:10031A00FE93EE933197AC81A083AA81BB810E94A0
:10032A007A03FF232AF0ED91FD913196FE93EE9325
:10033A0006C0AA81BB81EFEFFFEFED93FC93198111
:10034A00088125960895BA93AA9326970E9487034F
:10035A0010E0AC85BD85E0E0F0E0ED93FC93EA891E
:10036A00FB893196EA8BFB8B3197E4912E2FE03093
:10037A0009F415C1E12FE03039F4253211F411E006
:10038A0002C00E9437030AC1E130A9F4253219F4E8
:10039A000E94370302C112E040E000E02D3211F45E
:1003AA0001E0FCC02B3211F44BE2F8C0203211F408
:1003BA0040E2F4C002C0E23039F450E013E02033E6
:1003CA0011F40068EBC003C0E33009F0E7C0203342
:1003DA0010F02A3308F007C0AAE05A9F502DE22FE6
:1003EA00E0535E0FDBC0E22FE33649F40E943E037E
:1003FA00E889F989A481AA930E944403CEC0E3370D
:10040A0041F40E943E030E944A030E9410031E2FD9
:10041A000AC0E03761F40E943E030E944A030E9428
:10042A001C031E2F086002600F7730E034C0E436E8
:10043A0011F0E93611F4046002C0E53731F4E4E55D
:10044A00F0E0EE83FF8315E00CC0E83511F4086094
:10045A0003C0E83709F0A1C0EEE5F0E0EE83FF83C0
:10046A0014E002FF14C00E943E030E945403AB85AD
:10047A00AA233AF4EA85FB850E947103EA87FB877F
:10048A004DE2403011F01F5F01C00B7F04C00E9493
:10049A003E030E94540300FD11C0151778F407FFAC
:1004AA0008C002FF04C00B7F242F115001C020E3B3
:1004BA0001C020E20E9437035150EFCF312F01FFD4
:1004CA0017C03030A1F003FF06C0EE81FF812591ED
:1004DA00EE83FF8305C0AE81BF812D91AE83BF83BA
:1004EA000E943703503009F051503150EACF4BC0C7
:1004FA0020E3EE81FF810E947E03E887F987EE817F
:10050A00FF813296EE83FF83E885F985AA85BB854C
:10051A00AE17BF0750F02F5FA885B985EA85FB851E
:10052A00EA1BFB0BEA87FB87EFCF2A3328F003FF8E
:10053A0002C0295F01C0295D04FD1AC0213320F4DD
:10054A00A885B985119709F409C0531710F000FF5F
:10055A0001C013C020E207FF0BC020E3006102FFC5
:10056A0007C00B7F4A930E944403503009F0515050
:10057A000E943703503009F051503150A885B9858F
:10058A00129708F0B5CF00FF08C0503031F0515033
:10059A00E0E2EA930E944403F8CF10E0E0CEAC8593
:1005AA00BD850E947A030E948E0364960895FF9285
:1005BA00F82E26970E9489030E945C03309719F44B
:1005CA00EFEFFFEF23C0DE0116960E946D038D0147
:1005DA000E945C03EE83FF83E0E0E887E987DE019F
:1005EA001A960E946D030E947A03FA93EA931A9369
:1005FA000A93E8E6F1E0FA93EA93DE011A96A3DE9B
:10060A009F01AE81BF81E0E0EC93F9010E94900363
:10061A002A96FF900895BA93AA93A991B991EE27C1
:10062A00FF276D91662311F03196FBCF0895BA9397
:10063A00AA93AA27BB27E991F9910590002011F006
:10064A001196FBCFFD0108950E94EE00A3E0B0E0F1
:10065A000C946303A0E30E94C90088EC90E0019720
:10066A00F1F708952A93AD85BE85EF85F889099536
:10067A000895E889F9893497E88BF98B0895AD854F
:10068A00BE85EF85F88909950895A889B9891496D0
:10069A000E947A03EE83FF83AE81BF810895A88901
:1006AA00B98914960E947A03EA87FB870895DE01C6
:1006BA001C960E946D030E947A030895109639F0E1
:1006CA00A89580ED97E00197F1F71197C9F708957A
:1006DA000024AF0DB01D0895F195E195F0400895FD
:1006EA006F2F660F660B762F0895ED91FC91119787
:1006FA0008950590F491E02D08957A936A93FA93F8
:10070A00EA9308955A934A933A932A931A930A9327
:10071A0008955D814C813B812A8119810881089560
:00000001FF
